:020000020000FC
:100000000C9402000FEF0DBF08E00EBF00E000935C
:10001000C50007E60093C40008E00093C10006E0B5
:100020000093C200789400E400BF0FEF04B910B74A
:1000300015FF0C942C0000E005B9E0E9F0E027E0A2
:1000400005910093C60021501091C00015FBE6F702
:10005000203069F30C9420000FEF05B910B715FD9F
:100060000895E4E8F0E027E005910093C6002150F0
:100070001091C00015FB46F7203071F30C9434004A
:100080000C942C004C6F7720566F6C746167650A76
:080090004E6F726D616C0A00F5
:00000001FF
